{
  "_format": "hh-sol-artifact-1",
  "contractName": "BuildSpaceNFT",
  "sourceName": "contracts/BuildSpaceNFT.sol",
  "abi": [
    {
      "inputs": [],
      "stateMutability": "nonpayable",
      "type": "constructor"
    },
    {
      "anonymous": false,
      "inputs": [
        {
          "indexed": true,
          "internalType": "address",
          "name": "owner",
          "type": "address"
        },
        {
          "indexed": true,
          "internalType": "address",
          "name": "approved",
          "type": "address"
        },
        {
          "indexed": true,
          "internalType": "uint256",
          "name": "tokenId",
          "type": "uint256"
        }
      ],
      "name": "Approval",
      "type": "event"
    },
    {
      "anonymous": false,
      "inputs": [
        {
          "indexed": true,
          "internalType": "address",
          "name": "owner",
          "type": "address"
        },
        {
          "indexed": true,
          "internalType": "address",
          "name": "operator",
          "type": "address"
        },
        {
          "indexed": false,
          "internalType": "bool",
          "name": "approved",
          "type": "bool"
        }
      ],
      "name": "ApprovalForAll",
      "type": "event"
    },
    {
      "anonymous": false,
      "inputs": [
        {
          "indexed": false,
          "internalType": "address",
          "name": "_sender",
          "type": "address"
        },
        {
          "indexed": false,
          "internalType": "uint256",
          "name": "_tokenId",
          "type": "uint256"
        }
      ],
      "name": "NewNFTMinted",
      "type": "event"
    },
    {
      "anonymous": false,
      "inputs": [
        {
          "indexed": true,
          "internalType": "address",
          "name": "from",
          "type": "address"
        },
        {
          "indexed": true,
          "internalType": "address",
          "name": "to",
          "type": "address"
        },
        {
          "indexed": true,
          "internalType": "uint256",
          "name": "tokenId",
          "type": "uint256"
        }
      ],
      "name": "Transfer",
      "type": "event"
    },
    {
      "inputs": [
        {
          "internalType": "address",
          "name": "to",
          "type": "address"
        },
        {
          "internalType": "uint256",
          "name": "tokenId",
          "type": "uint256"
        }
      ],
      "name": "approve",
      "outputs": [],
      "stateMutability": "nonpayable",
      "type": "function"
    },
    {
      "inputs": [
        {
          "internalType": "address",
          "name": "owner",
          "type": "address"
        }
      ],
      "name": "balanceOf",
      "outputs": [
        {
          "internalType": "uint256",
          "name": "",
          "type": "uint256"
        }
      ],
      "stateMutability": "view",
      "type": "function"
    },
    {
      "inputs": [
        {
          "internalType": "uint256",
          "name": "tokenId",
          "type": "uint256"
        }
      ],
      "name": "getApproved",
      "outputs": [
        {
          "internalType": "address",
          "name": "",
          "type": "address"
        }
      ],
      "stateMutability": "view",
      "type": "function"
    },
    {
      "inputs": [],
      "name": "getTotalNFTsMintedSoFar",
      "outputs": [
        {
          "internalType": "uint256",
          "name": "",
          "type": "uint256"
        }
      ],
      "stateMutability": "view",
      "type": "function"
    },
    {
      "inputs": [
        {
          "internalType": "address",
          "name": "owner",
          "type": "address"
        },
        {
          "internalType": "address",
          "name": "operator",
          "type": "address"
        }
      ],
      "name": "isApprovedForAll",
      "outputs": [
        {
          "internalType": "bool",
          "name": "",
          "type": "bool"
        }
      ],
      "stateMutability": "view",
      "type": "function"
    },
    {
      "inputs": [],
      "name": "makeAKNFT",
      "outputs": [],
      "stateMutability": "nonpayable",
      "type": "function"
    },
    {
      "inputs": [],
      "name": "name",
      "outputs": [
        {
          "internalType": "string",
          "name": "",
          "type": "string"
        }
      ],
      "stateMutability": "view",
      "type": "function"
    },
    {
      "inputs": [
        {
          "internalType": "uint256",
          "name": "tokenId",
          "type": "uint256"
        }
      ],
      "name": "ownerOf",
      "outputs": [
        {
          "internalType": "address",
          "name": "",
          "type": "address"
        }
      ],
      "stateMutability": "view",
      "type": "function"
    },
    {
      "inputs": [
        {
          "internalType": "uint256",
          "name": "tokenId",
          "type": "uint256"
        }
      ],
      "name": "pickFirstWord",
      "outputs": [
        {
          "internalType": "string",
          "name": "",
          "type": "string"
        }
      ],
      "stateMutability": "view",
      "type": "function"
    },
    {
      "inputs": [
        {
          "internalType": "uint256",
          "name": "tokenId",
          "type": "uint256"
        }
      ],
      "name": "pickSecondWord",
      "outputs": [
        {
          "internalType": "string",
          "name": "",
          "type": "string"
        }
      ],
      "stateMutability": "view",
      "type": "function"
    },
    {
      "inputs": [
        {
          "internalType": "uint256",
          "name": "tokenId",
          "type": "uint256"
        }
      ],
      "name": "pickThirdWord",
      "outputs": [
        {
          "internalType": "string",
          "name": "",
          "type": "string"
        }
      ],
      "stateMutability": "view",
      "type": "function"
    },
    {
      "inputs": [
        {
          "internalType": "address",
          "name": "from",
          "type": "address"
        },
        {
          "internalType": "address",
          "name": "to",
          "type": "address"
        },
        {
          "internalType": "uint256",
          "name": "tokenId",
          "type": "uint256"
        }
      ],
      "name": "safeTransferFrom",
      "outputs": [],
      "stateMutability": "nonpayable",
      "type": "function"
    },
    {
      "inputs": [
        {
          "internalType": "address",
          "name": "from",
          "type": "address"
        },
        {
          "internalType": "address",
          "name": "to",
          "type": "address"
        },
        {
          "internalType": "uint256",
          "name": "tokenId",
          "type": "uint256"
        },
        {
          "internalType": "bytes",
          "name": "data",
          "type": "bytes"
        }
      ],
      "name": "safeTransferFrom",
      "outputs": [],
      "stateMutability": "nonpayable",
      "type": "function"
    },
    {
      "inputs": [
        {
          "internalType": "address",
          "name": "operator",
          "type": "address"
        },
        {
          "internalType": "bool",
          "name": "approved",
          "type": "bool"
        }
      ],
      "name": "setApprovalForAll",
      "outputs": [],
      "stateMutability": "nonpayable",
      "type": "function"
    },
    {
      "inputs": [
        {
          "internalType": "bytes4",
          "name": "interfaceId",
          "type": "bytes4"
        }
      ],
      "name": "supportsInterface",
      "outputs": [
        {
          "internalType": "bool",
          "name": "",
          "type": "bool"
        }
      ],
      "stateMutability": "view",
      "type": "function"
    },
    {
      "inputs": [],
      "name": "symbol",
      "outputs": [
        {
          "internalType": "string",
          "name": "",
          "type": "string"
        }
      ],
      "stateMutability": "view",
      "type": "function"
    },
    {
      "inputs": [
        {
          "internalType": "uint256",
          "name": "tokenId",
          "type": "uint256"
        }
      ],
      "name": "tokenURI",
      "outputs": [
        {
          "internalType": "string",
          "name": "",
          "type": "string"
        }
      ],
      "stateMutability": "view",
      "type": "function"
    },
    {
      "inputs": [
        {
          "internalType": "address",
          "name": "from",
          "type": "address"
        },
        {
          "internalType": "address",
          "name": "to",
          "type": "address"
        },
        {
          "internalType": "uint256",
          "name": "tokenId",
          "type": "uint256"
        }
      ],
      "name": "transferFrom",
      "outputs": [],
      "stateMutability": "nonpayable",
      "type": "function"
    }
  ],
  "bytecode": "0x608060405260405180610160016040528061012f815260200162004b5061012f91396008908162000031919062001107565b506040518061022001604052806040518060400160405280600281526020017f4d7900000000000000000000000000000000000000000000000000000000000081525081526020016040518060400160405280600481526020017f4d696e650000000000000000000000000000000000000000000000000000000081525081526020016040518060400160405280600481526020017f4f7572730000000000000000000000000000000000000000000000000000000081525081526020016040518060400160405280600481526020017f4174616c0000000000000000000000000000000000000000000000000000000081525081526020016040518060400160405280600481526020017f48756e750000000000000000000000000000000000000000000000000000000081525081526020016040518060400160405280600581526020017f507563687500000000000000000000000000000000000000000000000000000081525081526020016040518060400160405280600581526020017f4b7563687500000000000000000000000000000000000000000000000000000081525081526020016040518060400160405280600581526020017f426162756900000000000000000000000000000000000000000000000000000081525081526020016040518060400160405280600481526020017f426162750000000000000000000000000000000000000000000000000000000081525081526020016040518060400160405280600481526020017f416d61720000000000000000000000000000000000000000000000000000000081525081526020016040518060400160405280600a81526020017f537564687569416d61720000000000000000000000000000000000000000000081525081526020016040518060400160405280600b81526020017f456b6d6174726f416d617200000000000000000000000000000000000000000081525081526020016040518060400160405280600581526020017f546f6d617200000000000000000000000000000000000000000000000000000081525081526020016040518060400160405280600581526020017f596f75727300000000000000000000000000000000000000000000000000000081525081526020016040518060400160405280600481526020017f596f75720000000000000000000000000000000000000000000000000000000081525081526020016040518060400160405280600781526020017f446164647927730000000000000000000000000000000000000000000000000081525081526020016040518060400160405280600181526020017f490000000000000000000000000000000000000000000000000000000000000081525081525060099060116200043992919062000d40565b506040518061024001604052806040518060400160405280600581526020017f446f67677900000000000000000000000000000000000000000000000000000081525081526020016040518060400160405280600581526020017f446f67677500000000000000000000000000000000000000000000000000000081525081526020016040518060400160405280600581526020017f507563686900000000000000000000000000000000000000000000000000000081525081526020016040518060400160405280600581526020017f4b7563686900000000000000000000000000000000000000000000000000000081525081526020016040518060400160405280600581526020017f4b7563687500000000000000000000000000000000000000000000000000000081525081526020016040518060400160405280600581526020017f507573737900000000000000000000000000000000000000000000000000000081525081526020016040518060400160405280600881526020017f5072696e6365737300000000000000000000000000000000000000000000000081525081526020016040518060400160405280600481526020017f426162790000000000000000000000000000000000000000000000000000000081525081526020016040518060400160405280600481526020017f536f6e610000000000000000000000000000000000000000000000000000000081525081526020016040518060400160405280600581526020017f536f6e616900000000000000000000000000000000000000000000000000000081525081526020016040518060400160405280600681526020017f426162756c69000000000000000000000000000000000000000000000000000081525081526020016040518060400160405280600881526020017f507563686b756c6900000000000000000000000000000000000000000000000081525081526020016040518060400160405280600581526020017f42686f6c7500000000000000000000000000000000000000000000000000000081525081526020016040518060400160405280600981526020017f42656175746966756c000000000000000000000000000000000000000000000081525081526020016040518060400160405280600481526020017f437574650000000000000000000000000000000000000000000000000000000081525081526020016040518060400160405280600581526020017f537765657400000000000000000000000000000000000000000000000000000081525081526020016040518060400160405280600681526020017f4c6974746c65000000000000000000000000000000000000000000000000000081525081526020016040518060400160405280600481526020017f4c6f766500000000000000000000000000000000000000000000000000000000815250815250600a9060126200087c92919062000da0565b506040518061024001604052806040518060400160405280600881526020017f536f6e614d6f6e6100000000000000000000000000000000000000000000000081525081526020016040518060400160405280600781526020017f50756e74756c690000000000000000000000000000000000000000000000000081525081526020016040518060400160405280600781526020017f53756e646f72690000000000000000000000000000000000000000000000000081525081526020016040518060400160405280600581526020017f4368756d7500000000000000000000000000000000000000000000000000000081525081526020016040518060400160405280600581526020017f437574696500000000000000000000000000000000000000000000000000000081525081526020016040518060400160405280600481526020017f4d6f6e610000000000000000000000000000000000000000000000000000000081525081526020016040518060400160405280600b81526020017f4368616e6465724b6f6e6100000000000000000000000000000000000000000081525081526020016040518060400160405280600981526020017f4d6f6f6e6c69676874000000000000000000000000000000000000000000000081525081526020016040518060400160405280600481526020017f4e6f6f720000000000000000000000000000000000000000000000000000000081525081526020016040518060400160405280600781526020017f47756c4b616e640000000000000000000000000000000000000000000000000081525081526020016040518060400160405280600581526020017f47756c616200000000000000000000000000000000000000000000000000000081525081526020016040518060400160405280600481526020017f4d6579650000000000000000000000000000000000000000000000000000000081525081526020016040518060200160405280600081525081526020016040518060400160405280600481526020017f4769726c0000000000000000000000000000000000000000000000000000000081525081526020016040518060400160405280600881526020017f5072696e6365737300000000000000000000000000000000000000000000000081525081526020016040518060400160405280600a81526020017f45766572797468696e670000000000000000000000000000000000000000000081525081526020016040518060400160405280600381526020017f596f75000000000000000000000000000000000000000000000000000000000081525081526020016040518060400160405280600181526020017f4b00000000000000000000000000000000000000000000000000000000000000815250815250600b90601262000c9992919062000da0565b5034801562000ca757600080fd5b506040518060400160405280600c81526020017f414b466f72657665724e465400000000000000000000000000000000000000008152506040518060400160405280600281526020017f414b000000000000000000000000000000000000000000000000000000000000815250816000908162000d25919062001107565b50806001908162000d37919062001107565b505050620011ee565b82805482825590600052602060002090810192821562000d8d579160200282015b8281111562000d8c57825182908162000d7b919062001107565b509160200191906001019062000d61565b5b50905062000d9c919062000e00565b5090565b82805482825590600052602060002090810192821562000ded579160200282015b8281111562000dec57825182908162000ddb919062001107565b509160200191906001019062000dc1565b5b50905062000dfc919062000e00565b5090565b5b8082111562000e24576000818162000e1a919062000e28565b5060010162000e01565b5090565b50805462000e369062000ef6565b6000825580601f1062000e4a575062000e6b565b601f01602090049060005260206000209081019062000e6a919062000e6e565b5b50565b5b8082111562000e8957600081600090555060010162000e6f565b5090565b600081519050919050565b7f4e487b7100000000000000000000000000000000000000000000000000000000600052604160045260246000fd5b7f4e487b7100000000000000000000000000000000000000000000000000000000600052602260045260246000fd5b6000600282049050600182168062000f0f57607f821691505b60208210810362000f255762000f2462000ec7565b5b50919050565b60008190508160005260206000209050919050565b60006020601f8301049050919050565b600082821b905092915050565b60006008830262000f8f7fffffffffffffffffffffffffffffffffffffffffffffffffffffffffffffffff8262000f50565b62000f9b868362000f50565b95508019841693508086168417925050509392505050565b6000819050919050565b6000819050919050565b600062000fe862000fe262000fdc8462000fb3565b62000fbd565b62000fb3565b9050919050565b6000819050919050565b620010048362000fc7565b6200101c620010138262000fef565b84845462000f5d565b825550505050565b600090565b6200103362001024565b6200104081848462000ff9565b505050565b5b8181101562001068576200105c60008262001029565b60018101905062001046565b5050565b601f821115620010b757620010818162000f2b565b6200108c8462000f40565b810160208510156200109c578190505b620010b4620010ab8562000f40565b83018262001045565b50505b505050565b600082821c905092915050565b6000620010dc60001984600802620010bc565b1980831691505092915050565b6000620010f78383620010c9565b9150826002028217905092915050565b620011128262000e8d565b67ffffffffffffffff8111156200112e576200112d62000e98565b5b6200113a825462000ef6565b620011478282856200106c565b600060209050601f8311600181146200117f57600084156200116a578287015190505b620011768582620010e9565b865550620011e6565b601f1984166200118f8662000f2b565b60005b82811015620011b95784890151825560018201915060208501945060208101905062001192565b86831015620011d95784890151620011d5601f891682620010c9565b8355505b6001600288020188555050505b505050505050565b61395280620011fe6000396000f3fe608060405234801561001057600080fd5b50600436106101165760003560e01c806370a08231116100a2578063c630338611610071578063c6303386146102f1578063c87b56dd14610321578063e2d2c30814610351578063e985e9c514610381578063e9d98922146103b157610116565b806370a082311461026b57806395d89b411461029b578063a22cb465146102b9578063b88d4fde146102d557610116565b8063095ea7b3116100e9578063095ea7b3146101b757806323b872dd146101d35780633bad0d36146101ef57806342842e0e1461021f5780636352211e1461023b57610116565b806301ffc9a71461011b578063060475901461014b57806306fdde0314610169578063081812fc14610187575b600080fd5b61013560048036038101906101309190612288565b6103bb565b60405161014291906122d0565b60405180910390f35b61015361049d565b6040516101609190612304565b60405180910390f35b6101716104fe565b60405161017e91906123af565b60405180910390f35b6101a1600480360381019061019c91906123fd565b610590565b6040516101ae919061246b565b60405180910390f35b6101d160048036038101906101cc91906124b2565b6105d6565b005b6101ed60048036038101906101e891906124f2565b6106ed565b005b610209600480360381019061020491906123fd565b61074d565b60405161021691906123af565b60405180910390f35b610239600480360381019061023491906124f2565b610845565b005b610255600480360381019061025091906123fd565b610865565b604051610262919061246b565b60405180910390f35b61028560048036038101906102809190612545565b6108eb565b6040516102929190612304565b60405180910390f35b6102a36109a2565b6040516102b091906123af565b60405180910390f35b6102d360048036038101906102ce919061259e565b610a34565b005b6102ef60048036038101906102ea9190612713565b610a4a565b005b61030b600480360381019061030691906123fd565b610aac565b60405161031891906123af565b60405180910390f35b61033b600480360381019061033691906123fd565b610ba4565b60405161034891906123af565b60405180910390f35b61036b600480360381019061036691906123fd565b610cb6565b60405161037891906123af565b60405180910390f35b61039b60048036038101906103969190612796565b610dae565b6040516103a891906122d0565b60405180910390f35b6103b9610e42565b005b60007f80ac58cd000000000000000000000000000000000000000000000000000000007bffffffffffffffffffffffffffffffffffffffffffffffffffffffff1916827bffffffffffffffffffffffffffffffffffffffffffffffffffffffff1916148061048657507f5b5e139f000000000000000000000000000000000000000000000000000000007bffffffffffffffffffffffffffffffffffffffffffffffffffffffff1916827bffffffffffffffffffffffffffffffffffffffffffffffffffffffff1916145b80610496575061049582610e4c565b5b9050919050565b60008060016104ac6007610eb6565b6104b69190612805565b90506104f76040518060400160405280601881526020017f49207761732077617665642061742025642074696d657321000000000000000081525082610ec4565b8091505090565b60606000805461050d90612868565b80601f016020809104026020016040519081016040528092919081815260200182805461053990612868565b80156105865780601f1061055b57610100808354040283529160200191610586565b820191906000526020600020905b81548152906001019060200180831161056957829003601f168201915b5050505050905090565b600061059b82610f60565b6004600083815260200190815260200160002060009054906101000a900473ffffffffffffffffffffffffffffffffffffffff169050919050565b60006105e182610865565b90508073ffffffffffffffffffffffffffffffffffffffff168373ffffffffffffffffffffffffffffffffffffffff1603610651576040517f08c379a00000000000000000000000000000000000000000000000000000000081526004016106489061290b565b60405180910390fd5b8073ffffffffffffffffffffffffffffffffffffffff16610670610fab565b73ffffffffffffffffffffffffffffffffffffffff16148061069f575061069e81610699610fab565b610dae565b5b6106de576040517f08c379a00000000000000000000000000000000000000000000000000000000081526004016106d59061299d565b60405180910390fd5b6106e88383610fb3565b505050565b6106fe6106f8610fab565b8261106c565b61073d576040517f08c379a000000000000000000000000000000000000000000000000000000000815260040161073490612a2f565b60405180910390fd5b610748838383611101565b505050565b6060600061078161075d846113fa565b60405160200161076d9190612ad7565b6040516020818303038152906040526114c8565b9050600980549050816107949190612b28565b9050600981815481106107aa576107a9612b59565b5b9060005260206000200180546107bf90612868565b80601f01602080910402602001604051908101604052809291908181526020018280546107eb90612868565b80156108385780601f1061080d57610100808354040283529160200191610838565b820191906000526020600020905b81548152906001019060200180831161081b57829003601f168201915b5050505050915050919050565b61086083838360405180602001604052806000815250610a4a565b505050565b600080610871836114fb565b9050600073ffffffffffffffffffffffffffffffffffffffff168173ffffffffffffffffffffffffffffffffffffffff16036108e2576040517f08c379a00000000000000000000000000000000000000000000000000000000081526004016108d990612bd4565b60405180910390fd5b80915050919050565b60008073ffffffffffffffffffffffffffffffffffffffff168273ffffffffffffffffffffffffffffffffffffffff160361095b576040517f08c379a000000000000000000000000000000000000000000000000000000000815260040161095290612c66565b60405180910390fd5b600360008373ffffffffffffffffffffffffffffffffffffffff1673ffffffffffffffffffffffffffffffffffffffff168152602001908152602001600020549050919050565b6060600180546109b190612868565b80601f01602080910402602001604051908101604052809291908181526020018280546109dd90612868565b8015610a2a5780601f106109ff57610100808354040283529160200191610a2a565b820191906000526020600020905b815481529060010190602001808311610a0d57829003601f168201915b5050505050905090565b610a46610a3f610fab565b8383611538565b5050565b610a5b610a55610fab565b8361106c565b610a9a576040517f08c379a0000000000000000000000000000000000000000000000000000000008152600401610a9190612a2f565b60405180910390fd5b610aa6848484846116a4565b50505050565b60606000610ae0610abc846113fa565b604051602001610acc9190612cd2565b6040516020818303038152906040526114c8565b9050600a8054905081610af39190612b28565b9050600b8181548110610b0957610b08612b59565b5b906000526020600020018054610b1e90612868565b80601f0160208091040260200160405190810160405280929190818152602001828054610b4a90612868565b8015610b975780601f10610b6c57610100808354040283529160200191610b97565b820191906000526020600020905b815481529060010190602001808311610b7a57829003601f168201915b5050505050915050919050565b6060610baf82610f60565b6000600660008481526020019081526020016000208054610bcf90612868565b80601f0160208091040260200160405190810160405280929190818152602001828054610bfb90612868565b8015610c485780601f10610c1d57610100808354040283529160200191610c48565b820191906000526020600020905b815481529060010190602001808311610c2b57829003601f168201915b505050505090506000610c59611700565b90506000815103610c6e578192505050610cb1565b600082511115610ca3578082604051602001610c8b929190612cf4565b60405160208183030381529060405292505050610cb1565b610cac84611717565b925050505b919050565b60606000610cea610cc6846113fa565b604051602001610cd69190612d64565b6040516020818303038152906040526114c8565b9050600b8054905081610cfd9190612b28565b9050600b8181548110610d1357610d12612b59565b5b906000526020600020018054610d2890612868565b80601f0160208091040260200160405190810160405280929190818152602001828054610d5490612868565b8015610da15780601f10610d7657610100808354040283529160200191610da1565b820191906000526020600020905b815481529060010190602001808311610d8457829003601f168201915b5050505050915050919050565b6000600560008473ffffffffffffffffffffffffffffffffffffffff1673ffffffffffffffffffffffffffffffffffffffff16815260200190815260200160002060008373ffffffffffffffffffffffffffffffffffffffff1673ffffffffffffffffffffffffffffffffffffffff16815260200190815260200160002060009054906101000a900460ff16905092915050565b610e4a61177f565b565b60007f01ffc9a7000000000000000000000000000000000000000000000000000000007bffffffffffffffffffffffffffffffffffffffffffffffffffffffff1916827bffffffffffffffffffffffffffffffffffffffffffffffffffffffff1916149050919050565b600081600001549050919050565b610f5c8282604051602401610eda929190612d86565b6040516020818303038152906040527fb60e72cc000000000000000000000000000000000000000000000000000000007bffffffffffffffffffffffffffffffffffffffffffffffffffffffff19166020820180517bffffffffffffffffffffffffffffffffffffffffffffffffffffffff83818316178352505050506118d9565b5050565b610f6981611902565b610fa8576040517f08c379a0000000000000000000000000000000000000000000000000000000008152600401610f9f90612bd4565b60405180910390fd5b50565b600033905090565b816004600083815260200190815260200160002060006101000a81548173ffffffffffffffffffffffffffffffffffffffff021916908373ffffffffffffffffffffffffffffffffffffffff160217905550808273ffffffffffffffffffffffffffffffffffffffff1661102683610865565b73ffffffffffffffffffffffffffffffffffffffff167f8c5be1e5ebec7d5bd14f71427d1e84f3dd0314c0f7b2291e5b200ac8c7c3b92560405160405180910390a45050565b60008061107883610865565b90508073ffffffffffffffffffffffffffffffffffffffff168473ffffffffffffffffffffffffffffffffffffffff1614806110ba57506110b98185610dae565b5b806110f857508373ffffffffffffffffffffffffffffffffffffffff166110e084610590565b73ffffffffffffffffffffffffffffffffffffffff16145b91505092915050565b8273ffffffffffffffffffffffffffffffffffffffff1661112182610865565b73ffffffffffffffffffffffffffffffffffffffff1614611177576040517f08c379a000000000000000000000000000000000000000000000000000000000815260040161116e90612e28565b60405180910390fd5b600073ffffffffffffffffffffffffffffffffffffffff168273ffffffffffffffffffffffffffffffffffffffff16036111e6576040517f08c379a00000000000000000000000000000000000000000000000000000000081526004016111dd90612eba565b60405180910390fd5b6111f38383836001611943565b8273ffffffffffffffffffffffffffffffffffffffff1661121382610865565b73ffffffffffffffffffffffffffffffffffffffff1614611269576040517f08c379a000000000000000000000000000000000000000000000000000000000815260040161126090612e28565b60405180910390fd5b6004600082815260200190815260200160002060006101000a81549073ffffffffffffffffffffffffffffffffffffffff02191690556001600360008573ffffffffffffffffffffffffffffffffffffffff1673ffffffffffffffffffffffffffffffffffffffff168152602001908152602001600020600082825403925050819055506001600360008473ffffffffffffffffffffffffffffffffffffffff1673ffffffffffffffffffffffffffffffffffffffff16815260200190815260200160002060008282540192505081905550816002600083815260200190815260200160002060006101000a81548173ffffffffffffffffffffffffffffffffffffffff021916908373ffffffffffffffffffffffffffffffffffffffff160217905550808273ffffffffffffffffffffffffffffffffffffffff168473ffffffffffffffffffffffffffffffffffffffff167fddf252ad1be2c89b69c2b068fc378daa952ba7f163c4a11628f55a4df523b3ef60405160405180910390a46113f58383836001611a69565b505050565b60606000600161140984611a6f565b01905060008167ffffffffffffffff811115611428576114276125e8565b5b6040519080825280601f01601f19166020018201604052801561145a5781602001600182028036833780820191505090505b509050600082602001820190505b6001156114bd578080600190039150507f3031323334353637383961626364656600000000000000000000000000000000600a86061a8153600a85816114b1576114b0612af9565b5b04945060008503611468575b819350505050919050565b6000816040516020016114db9190612eda565b6040516020818303038152906040528051906020012060001c9050919050565b60006002600083815260200190815260200160002060009054906101000a900473ffffffffffffffffffffffffffffffffffffffff169050919050565b8173ffffffffffffffffffffffffffffffffffffffff168373ffffffffffffffffffffffffffffffffffffffff16036115a6576040517f08c379a000000000000000000000000000000000000000000000000000000000815260040161159d90612f3d565b60405180910390fd5b80600560008573ffffffffffffffffffffffffffffffffffffffff1673ffffffffffffffffffffffffffffffffffffffff16815260200190815260200160002060008473ffffffffffffffffffffffffffffffffffffffff1673ffffffffffffffffffffffffffffffffffffffff16815260200190815260200160002060006101000a81548160ff0219169083151502179055508173ffffffffffffffffffffffffffffffffffffffff168373ffffffffffffffffffffffffffffffffffffffff167f17307eab39ab6107e8899845ad3d59bd9653f200f220920489ca2b5937696c318360405161169791906122d0565b60405180910390a3505050565b6116af848484611101565b6116bb84848484611bc2565b6116fa576040517f08c379a00000000000000000000000000000000000000000000000000000000081526004016116f190612fcf565b60405180910390fd5b50505050565b606060405180602001604052806000815250905090565b606061172282610f60565b600061172c611700565b9050600081511161174c5760405180602001604052806000815250611777565b80611756846113fa565b604051602001611767929190612cf4565b6040516020818303038152906040525b915050919050565b61119461178c6007610eb6565b1061179657600080fd5b60006117a26007610eb6565b905060006117af8261074d565b905060006117bc83610aac565b905060006117c984610cb6565b905060008383836040516020016117e293929190612fef565b60405160208183030381529060405290506000600885858560405160200161180d9493929190613104565b604051602081830303815290604052905060006118528361182d84611d49565b60405160200161183e9291906132a3565b604051602081830303815290604052611d49565b90506000816040516020016118679190613334565b60405160208183030381529060405290506118823389611ee0565b61188c8882611efe565b6118966007611f6b565b7f1c05098ed1ff38e6238d2b1b04b2c7977d4c94ce651bda6473f9dba8dbf01da033896040516118c7929190613356565b60405180910390a15050505050505050565b60008151905060006a636f6e736f6c652e6c6f679050602083016000808483855afa5050505050565b60008073ffffffffffffffffffffffffffffffffffffffff16611924836114fb565b73ffffffffffffffffffffffffffffffffffffffff1614159050919050565b6001811115611a6357600073ffffffffffffffffffffffffffffffffffffffff168473ffffffffffffffffffffffffffffffffffffffff16146119d75780600360008673ffffffffffffffffffffffffffffffffffffffff1673ffffffffffffffffffffffffffffffffffffffff16815260200190815260200160002060008282546119cf919061337f565b925050819055505b600073ffffffffffffffffffffffffffffffffffffffff168373ffffffffffffffffffffffffffffffffffffffff1614611a625780600360008573ffffffffffffffffffffffffffffffffffffffff1673ffffffffffffffffffffffffffffffffffffffff1681526020019081526020016000206000828254611a5a9190612805565b925050819055505b5b50505050565b50505050565b600080600090507a184f03e93ff9f4daa797ed6e38ed64bf6a1f0100000000000000008310611acd577a184f03e93ff9f4daa797ed6e38ed64bf6a1f0100000000000000008381611ac357611ac2612af9565b5b0492506040810190505b6d04ee2d6d415b85acef81000000008310611b0a576d04ee2d6d415b85acef81000000008381611b0057611aff612af9565b5b0492506020810190505b662386f26fc100008310611b3957662386f26fc100008381611b2f57611b2e612af9565b5b0492506010810190505b6305f5e1008310611b62576305f5e1008381611b5857611b57612af9565b5b0492506008810190505b6127108310611b87576127108381611b7d57611b7c612af9565b5b0492506004810190505b60648310611baa5760648381611ba057611b9f612af9565b5b0492506002810190505b600a8310611bb9576001810190505b80915050919050565b6000611be38473ffffffffffffffffffffffffffffffffffffffff16611f81565b15611d3c578373ffffffffffffffffffffffffffffffffffffffff1663150b7a02611c0c610fab565b8786866040518563ffffffff1660e01b8152600401611c2e9493929190613408565b6020604051808303816000875af1925050508015611c6a57506040513d601f19601f82011682018060405250810190611c679190613469565b60015b611cec573d8060008114611c9a576040519150601f19603f3d011682016040523d82523d6000602084013e611c9f565b606091505b506000815103611ce4576040517f08c379a0000000000000000000000000000000000000000000000000000000008152600401611cdb90612fcf565b60405180910390fd5b805181602001fd5b63150b7a0260e01b7bffffffffffffffffffffffffffffffffffffffffffffffffffffffff1916817bffffffffffffffffffffffffffffffffffffffffffffffffffffffff191614915050611d41565b600190505b949350505050565b606060008251905060008103611d715760405180602001604052806000815250915050611edb565b60006003600283611d829190612805565b611d8c9190613496565b6004611d9891906134c7565b90506000602082611da99190612805565b67ffffffffffffffff811115611dc257611dc16125e8565b5b6040519080825280601f01601f191660200182016040528015611df45781602001600182028036833780820191505090505b50905060006040518060600160405280604081526020016138dd604091399050600181016020830160005b86811015611e985760038101905062ffffff818a015116603f8160121c168401518060081b905060ff603f83600c1c1686015116810190508060081b905060ff603f8360061c1686015116810190508060081b905060ff603f831686015116810190508060e01b90508084526004840193505050611e1f565b506003860660018114611eb25760028114611ec257611ecd565b613d3d60f01b6002830352611ecd565b603d60f81b60018303525b508484525050819450505050505b919050565b611efa828260405180602001604052806000815250611fa4565b5050565b611f0782611902565b611f46576040517f08c379a0000000000000000000000000000000000000000000000000000000008152600401611f3d9061357b565b60405180910390fd5b80600660008481526020019081526020016000209081611f669190613732565b505050565b6001816000016000828254019250508190555050565b6000808273ffffffffffffffffffffffffffffffffffffffff163b119050919050565b611fae8383611fff565b611fbb6000848484611bc2565b611ffa576040517f08c379a0000000000000000000000000000000000000000000000000000000008152600401611ff190612fcf565b60405180910390fd5b505050565b600073ffffffffffffffffffffffffffffffffffffffff168273ffffffffffffffffffffffffffffffffffffffff160361206e576040517f08c379a000000000000000000000000000000000000000000000000000000000815260040161206590613850565b60405180910390fd5b61207781611902565b156120b7576040517f08c379a00000000000000000000000000000000000000000000000000000000081526004016120ae906138bc565b60405180910390fd5b6120c5600083836001611943565b6120ce81611902565b1561210e576040517f08c379a0000000000000000000000000000000000000000000000000000000008152600401612105906138bc565b60405180910390fd5b6001600360008473ffffffffffffffffffffffffffffffffffffffff1673ffffffffffffffffffffffffffffffffffffffff16815260200190815260200160002060008282540192505081905550816002600083815260200190815260200160002060006101000a81548173ffffffffffffffffffffffffffffffffffffffff021916908373ffffffffffffffffffffffffffffffffffffffff160217905550808273ffffffffffffffffffffffffffffffffffffffff16600073ffffffffffffffffffffffffffffffffffffffff167fddf252ad1be2c89b69c2b068fc378daa952ba7f163c4a11628f55a4df523b3ef60405160405180910390a4612218600083836001611a69565b5050565b6000604051905090565b600080fd5b600080fd5b60007fffffffff0000000000000000000000000000000000000000000000000000000082169050919050565b61226581612230565b811461227057600080fd5b50565b6000813590506122828161225c565b92915050565b60006020828403121561229e5761229d612226565b5b60006122ac84828501612273565b91505092915050565b60008115159050919050565b6122ca816122b5565b82525050565b60006020820190506122e560008301846122c1565b92915050565b6000819050919050565b6122fe816122eb565b82525050565b600060208201905061231960008301846122f5565b92915050565b600081519050919050565b600082825260208201905092915050565b60005b8381101561235957808201518184015260208101905061233e565b60008484015250505050565b6000601f19601f8301169050919050565b60006123818261231f565b61238b818561232a565b935061239b81856020860161233b565b6123a481612365565b840191505092915050565b600060208201905081810360008301526123c98184612376565b905092915050565b6123da816122eb565b81146123e557600080fd5b50565b6000813590506123f7816123d1565b92915050565b60006020828403121561241357612412612226565b5b6000612421848285016123e8565b91505092915050565b600073ffffffffffffffffffffffffffffffffffffffff82169050919050565b60006124558261242a565b9050919050565b6124658161244a565b82525050565b6000602082019050612480600083018461245c565b92915050565b61248f8161244a565b811461249a57600080fd5b50565b6000813590506124ac81612486565b92915050565b600080604083850312156124c9576124c8612226565b5b60006124d78582860161249d565b92505060206124e8858286016123e8565b9150509250929050565b60008060006060848603121561250b5761250a612226565b5b60006125198682870161249d565b935050602061252a8682870161249d565b925050604061253b868287016123e8565b9150509250925092565b60006020828403121561255b5761255a612226565b5b60006125698482850161249d565b91505092915050565b61257b816122b5565b811461258657600080fd5b50565b60008135905061259881612572565b92915050565b600080604083850312156125b5576125b4612226565b5b60006125c38582860161249d565b92505060206125d485828601612589565b9150509250929050565b600080fd5b600080fd5b7f4e487b7100000000000000000000000000000000000000000000000000000000600052604160045260246000fd5b61262082612365565b810181811067ffffffffffffffff8211171561263f5761263e6125e8565b5b80604052505050565b600061265261221c565b905061265e8282612617565b919050565b600067ffffffffffffffff82111561267e5761267d6125e8565b5b61268782612365565b9050602081019050919050565b82818337600083830152505050565b60006126b66126b184612663565b612648565b9050828152602081018484840111156126d2576126d16125e3565b5b6126dd848285612694565b509392505050565b600082601f8301126126fa576126f96125de565b5b813561270a8482602086016126a3565b91505092915050565b6000806000806080858703121561272d5761272c612226565b5b600061273b8782880161249d565b945050602061274c8782880161249d565b935050604061275d878288016123e8565b925050606085013567ffffffffffffffff81111561277e5761277d61222b565b5b61278a878288016126e5565b91505092959194509250565b600080604083850312156127ad576127ac612226565b5b60006127bb8582860161249d565b92505060206127cc8582860161249d565b9150509250929050565b7f4e487b7100000000000000000000000000000000000000000000000000000000600052601160045260246000fd5b6000612810826122eb565b915061281b836122eb565b9250828201905080821115612833576128326127d6565b5b92915050565b7f4e487b7100000000000000000000000000000000000000000000000000000000600052602260045260246000fd5b6000600282049050600182168061288057607f821691505b60208210810361289357612892612839565b5b50919050565b7f4552433732313a20617070726f76616c20746f2063757272656e74206f776e6560008201527f7200000000000000000000000000000000000000000000000000000000000000602082015250565b60006128f560218361232a565b915061290082612899565b604082019050919050565b60006020820190508181036000830152612924816128e8565b9050919050565b7f4552433732313a20617070726f76652063616c6c6572206973206e6f7420746f60008201527f6b656e206f776e6572206f7220617070726f76656420666f7220616c6c000000602082015250565b6000612987603d8361232a565b91506129928261292b565b604082019050919050565b600060208201905081810360008301526129b68161297a565b9050919050565b7f4552433732313a2063616c6c6572206973206e6f7420746f6b656e206f776e6560008201527f72206f7220617070726f76656400000000000000000000000000000000000000602082015250565b6000612a19602d8361232a565b9150612a24826129bd565b604082019050919050565b60006020820190508181036000830152612a4881612a0c565b9050919050565b600081905092915050565b7f4d794769726c0000000000000000000000000000000000000000000000000000600082015250565b6000612a90600683612a4f565b9150612a9b82612a5a565b600682019050919050565b6000612ab18261231f565b612abb8185612a4f565b9350612acb81856020860161233b565b80840191505092915050565b6000612ae282612a83565b9150612aee8284612aa6565b915081905092915050565b7f4e487b7100000000000000000000000000000000000000000000000000000000600052601260045260246000fd5b6000612b33826122eb565b9150612b3e836122eb565b925082612b4e57612b4d612af9565b5b828206905092915050565b7f4e487b7100000000000000000000000000000000000000000000000000000000600052603260045260246000fd5b7f4552433732313a20696e76616c696420746f6b656e2049440000000000000000600082015250565b6000612bbe60188361232a565b9150612bc982612b88565b602082019050919050565b60006020820190508181036000830152612bed81612bb1565b9050919050565b7f4552433732313a2061646472657373207a65726f206973206e6f74206120766160008201527f6c6964206f776e65720000000000000000000000000000000000000000000000602082015250565b6000612c5060298361232a565b9150612c5b82612bf4565b604082019050919050565b60006020820190508181036000830152612c7f81612c43565b9050919050565b7f446164647927737072696e636573730000000000000000000000000000000000600082015250565b6000612cbc600f83612a4f565b9150612cc782612c86565b600f82019050919050565b6000612cdd82612caf565b9150612ce98284612aa6565b915081905092915050565b6000612d008285612aa6565b9150612d0c8284612aa6565b91508190509392505050565b7f416d61724d657965000000000000000000000000000000000000000000000000600082015250565b6000612d4e600883612a4f565b9150612d5982612d18565b600882019050919050565b6000612d6f82612d41565b9150612d7b8284612aa6565b915081905092915050565b60006040820190508181036000830152612da08185612376565b9050612daf60208301846122f5565b9392505050565b7f4552433732313a207472616e736665722066726f6d20696e636f72726563742060008201527f6f776e6572000000000000000000000000000000000000000000000000000000602082015250565b6000612e1260258361232a565b9150612e1d82612db6565b604082019050919050565b60006020820190508181036000830152612e4181612e05565b9050919050565b7f4552433732313a207472616e7366657220746f20746865207a65726f2061646460008201527f7265737300000000000000000000000000000000000000000000000000000000602082015250565b6000612ea460248361232a565b9150612eaf82612e48565b604082019050919050565b60006020820190508181036000830152612ed381612e97565b9050919050565b6000612ee68284612aa6565b915081905092915050565b7f4552433732313a20617070726f766520746f2063616c6c657200000000000000600082015250565b6000612f2760198361232a565b9150612f3282612ef1565b602082019050919050565b60006020820190508181036000830152612f5681612f1a565b9050919050565b7f4552433732313a207472616e7366657220746f206e6f6e20455243373231526560008201527f63656976657220696d706c656d656e7465720000000000000000000000000000602082015250565b6000612fb960328361232a565b9150612fc482612f5d565b604082019050919050565b60006020820190508181036000830152612fe881612fac565b9050919050565b6000612ffb8286612aa6565b91506130078285612aa6565b91506130138284612aa6565b9150819050949350505050565b60008190508160005260206000209050919050565b6000815461304281612868565b61304c8186612a4f565b94506001821660008114613067576001811461307c576130af565b60ff19831686528115158202860193506130af565b61308585613020565b60005b838110156130a757815481890152600182019150602081019050613088565b838801955050505b50505092915050565b7f3c2f746578743e3c2f7376673e00000000000000000000000000000000000000600082015250565b60006130ee600d83612a4f565b91506130f9826130b8565b600d82019050919050565b60006131108287613035565b915061311c8286612aa6565b91506131288285612aa6565b91506131348284612aa6565b915061313f826130e1565b915081905095945050505050565b7f7b226e616d65223a202200000000000000000000000000000000000000000000600082015250565b6000613183600a83612a4f565b915061318e8261314d565b600a82019050919050565b7f222c20226465736372697074696f6e223a20224120686967686c79206163636c60008201527f61696d656420636f6c6c656374696f6e206f66204265737420436f75706c657360208201527f20457665722e222c2022696d616765223a2022646174613a696d6167652f737660408201527f672b786d6c3b6261736536342c00000000000000000000000000000000000000606082015250565b6000613241606d83612a4f565b915061324c82613199565b606d82019050919050565b7f227d000000000000000000000000000000000000000000000000000000000000600082015250565b600061328d600283612a4f565b915061329882613257565b600282019050919050565b60006132ae82613176565b91506132ba8285612aa6565b91506132c582613234565b91506132d18284612aa6565b91506132dc82613280565b91508190509392505050565b7f646174613a6170706c69636174696f6e2f6a736f6e3b6261736536342c000000600082015250565b600061331e601d83612a4f565b9150613329826132e8565b601d82019050919050565b600061333f82613311565b915061334b8284612aa6565b915081905092915050565b600060408201905061336b600083018561245c565b61337860208301846122f5565b9392505050565b600061338a826122eb565b9150613395836122eb565b92508282039050818111156133ad576133ac6127d6565b5b92915050565b600081519050919050565b600082825260208201905092915050565b60006133da826133b3565b6133e481856133be565b93506133f481856020860161233b565b6133fd81612365565b840191505092915050565b600060808201905061341d600083018761245c565b61342a602083018661245c565b61343760408301856122f5565b818103606083015261344981846133cf565b905095945050505050565b6000815190506134638161225c565b92915050565b60006020828403121561347f5761347e612226565b5b600061348d84828501613454565b91505092915050565b60006134a1826122eb565b91506134ac836122eb565b9250826134bc576134bb612af9565b5b828204905092915050565b60006134d2826122eb565b91506134dd836122eb565b92508282026134eb816122eb565b91508282048414831517613502576135016127d6565b5b5092915050565b7f45524337323155524953746f726167653a2055524920736574206f66206e6f6e60008201527f6578697374656e7420746f6b656e000000000000000000000000000000000000602082015250565b6000613565602e8361232a565b915061357082613509565b604082019050919050565b6000602082019050818103600083015261359481613558565b9050919050565b60006020601f8301049050919050565b600082821b905092915050565b6000600883026135e87fffffffffffffffffffffffffffffffffffffffffffffffffffffffffffffffff826135ab565b6135f286836135ab565b95508019841693508086168417925050509392505050565b6000819050919050565b600061362f61362a613625846122eb565b61360a565b6122eb565b9050919050565b6000819050919050565b61364983613614565b61365d61365582613636565b8484546135b8565b825550505050565b600090565b613672613665565b61367d818484613640565b505050565b5b818110156136a15761369660008261366a565b600181019050613683565b5050565b601f8211156136e6576136b781613020565b6136c08461359b565b810160208510156136cf578190505b6136e36136db8561359b565b830182613682565b50505b505050565b600082821c905092915050565b6000613709600019846008026136eb565b1980831691505092915050565b600061372283836136f8565b9150826002028217905092915050565b61373b8261231f565b67ffffffffffffffff811115613754576137536125e8565b5b61375e8254612868565b6137698282856136a5565b600060209050601f83116001811461379c576000841561378a578287015190505b6137948582613716565b8655506137fc565b601f1984166137aa86613020565b60005b828110156137d2578489015182556001820191506020850194506020810190506137ad565b868310156137ef57848901516137eb601f8916826136f8565b8355505b6001600288020188555050505b505050505050565b7f4552433732313a206d696e7420746f20746865207a65726f2061646472657373600082015250565b600061383a60208361232a565b915061384582613804565b602082019050919050565b600060208201905081810360008301526138698161382d565b9050919050565b7f4552433732313a20746f6b656e20616c7265616479206d696e74656400000000600082015250565b60006138a6601c8361232a565b91506138b182613870565b602082019050919050565b600060208201905081810360008301526138d581613899565b905091905056fe4142434445464748494a4b4c4d4e4f505152535455565758595a6162636465666768696a6b6c6d6e6f707172737475767778797a303132333435363738392b2fa264697066735822122015b259c5011562d6dc364abc6d8d8ccae77182430867ab38a5cf04ed2f73c7c264736f6c634300081100333c73766720786d6c6e733d27687474703a2f2f7777772e77332e6f72672f323030302f73766727207072657365727665417370656374526174696f3d27784d696e594d696e206d656574272076696577426f783d273020302033353020333530273e3c7374796c653e2e62617365207b2066696c6c3a2077686974653b20666f6e742d66616d696c793a2073657269663b20666f6e742d73697a653a20323470783b207d3c2f7374796c653e3c726563742077696474683d273130302527206865696768743d2731303025272066696c6c3d27626c61636b27202f3e3c7465787420783d273530252720793d273530252720636c6173733d27626173652720646f6d696e616e742d626173656c696e653d276d6964646c652720746578742d616e63686f723d276d6964646c65273e",
  "linkReferences": {},
  "deployedLinkReferences": {}
}